{
  "contractName": "DPetitioner",
  "abi": [
    {
      "inputs": [],
      "stateMutability": "nonpayable",
      "type": "constructor"
    },
    {
      "anonymous": false,
      "inputs": [
        {
          "indexed": false,
          "internalType": "uint256",
          "name": "id",
          "type": "uint256"
        },
        {
          "indexed": false,
          "internalType": "bool",
          "name": "passed",
          "type": "bool"
        }
      ],
      "name": "ProposalCount",
      "type": "event"
    },
    {
      "anonymous": false,
      "inputs": [
        {
          "indexed": false,
          "internalType": "uint256",
          "name": "total",
          "type": "uint256"
        }
      ],
      "name": "ProposalCreated",
      "type": "event"
    },
    {
      "anonymous": false,
      "inputs": [
        {
          "indexed": false,
          "internalType": "uint256",
          "name": "upvotes",
          "type": "uint256"
        },
        {
          "indexed": false,
          "internalType": "uint256",
          "name": "downvotes",
          "type": "uint256"
        },
        {
          "indexed": false,
          "internalType": "address",
          "name": "voter",
          "type": "address"
        },
        {
          "indexed": false,
          "internalType": "uint256",
          "name": "proposalId",
          "type": "uint256"
        }
      ],
      "name": "newVote",
      "type": "event"
    },
    {
      "inputs": [
        {
          "internalType": "uint256",
          "name": "",
          "type": "uint256"
        }
      ],
      "name": "Proposals",
      "outputs": [
        {
          "internalType": "uint256",
          "name": "id",
          "type": "uint256"
        },
        {
          "internalType": "address",
          "name": "creator",
          "type": "address"
        },
        {
          "internalType": "bool",
          "name": "exists",
          "type": "bool"
        },
        {
          "internalType": "string",
          "name": "title",
          "type": "string"
        },
        {
          "internalType": "uint256",
          "name": "deadline",
          "type": "uint256"
        },
        {
          "internalType": "uint256",
          "name": "upvotes",
          "type": "uint256"
        },
        {
          "internalType": "uint256",
          "name": "downvotes",
          "type": "uint256"
        },
        {
          "internalType": "bool",
          "name": "passed",
          "type": "bool"
        }
      ],
      "stateMutability": "view",
      "type": "function",
      "constant": true
    },
    {
      "inputs": [],
      "name": "name",
      "outputs": [
        {
          "internalType": "string",
          "name": "",
          "type": "string"
        }
      ],
      "stateMutability": "view",
      "type": "function",
      "constant": true
    },
    {
      "inputs": [],
      "name": "ongoingProposals",
      "outputs": [
        {
          "internalType": "uint256",
          "name": "",
          "type": "uint256"
        }
      ],
      "stateMutability": "view",
      "type": "function",
      "constant": true
    },
    {
      "inputs": [],
      "name": "owner",
      "outputs": [
        {
          "internalType": "address",
          "name": "",
          "type": "address"
        }
      ],
      "stateMutability": "view",
      "type": "function",
      "constant": true
    },
    {
      "inputs": [],
      "name": "totalVoters",
      "outputs": [
        {
          "internalType": "uint256",
          "name": "",
          "type": "uint256"
        }
      ],
      "stateMutability": "view",
      "type": "function",
      "constant": true
    },
    {
      "inputs": [
        {
          "internalType": "address",
          "name": "",
          "type": "address"
        }
      ],
      "name": "voters",
      "outputs": [
        {
          "internalType": "address",
          "name": "account",
          "type": "address"
        },
        {
          "internalType": "string",
          "name": "firstName",
          "type": "string"
        },
        {
          "internalType": "string",
          "name": "lastName",
          "type": "string"
        },
        {
          "internalType": "enum DPetitioner.Gender",
          "name": "gender",
          "type": "uint8"
        }
      ],
      "stateMutability": "view",
      "type": "function",
      "constant": true
    },
    {
      "inputs": [],
      "name": "getTotalNumberOfProposals",
      "outputs": [
        {
          "internalType": "uint256",
          "name": "",
          "type": "uint256"
        }
      ],
      "stateMutability": "view",
      "type": "function",
      "constant": true
    },
    {
      "inputs": [
        {
          "internalType": "address",
          "name": "_newVoter",
          "type": "address"
        },
        {
          "internalType": "string",
          "name": "_fname",
          "type": "string"
        },
        {
          "internalType": "string",
          "name": "_lname",
          "type": "string"
        },
        {
          "internalType": "enum DPetitioner.Gender",
          "name": "_gender",
          "type": "uint8"
        }
      ],
      "name": "addVoter",
      "outputs": [
        {
          "internalType": "bool",
          "name": "",
          "type": "bool"
        }
      ],
      "stateMutability": "nonpayable",
      "type": "function"
    },
    {
      "inputs": [],
      "name": "totalProposalsCreated",
      "outputs": [
        {
          "internalType": "uint256",
          "name": "",
          "type": "uint256"
        }
      ],
      "stateMutability": "view",
      "type": "function",
      "constant": true
    },
    {
      "inputs": [
        {
          "internalType": "string",
          "name": "_title",
          "type": "string"
        }
      ],
      "name": "addProposal",
      "outputs": [
        {
          "internalType": "uint256",
          "name": "",
          "type": "uint256"
        }
      ],
      "stateMutability": "nonpayable",
      "type": "function"
    },
    {
      "inputs": [
        {
          "internalType": "uint256",
          "name": "_id",
          "type": "uint256"
        },
        {
          "internalType": "address",
          "name": "sender",
          "type": "address"
        }
      ],
      "name": "hasVoted",
      "outputs": [
        {
          "internalType": "bool",
          "name": "",
          "type": "bool"
        }
      ],
      "stateMutability": "view",
      "type": "function",
      "constant": true
    },
    {
      "inputs": [
        {
          "internalType": "uint256",
          "name": "_id",
          "type": "uint256"
        },
        {
          "internalType": "bool",
          "name": "upvote",
          "type": "bool"
        }
      ],
      "name": "castVote",
      "outputs": [],
      "stateMutability": "nonpayable",
      "type": "function"
    },
    {
      "inputs": [
        {
          "internalType": "uint256",
          "name": "_id",
          "type": "uint256"
        }
      ],
      "name": "calculatePetitionResult",
      "outputs": [
        {
          "internalType": "bool",
          "name": "",
          "type": "bool"
        }
      ],
      "stateMutability": "nonpayable",
      "type": "function"
    },
    {
      "inputs": [
        {
          "internalType": "uint256",
          "name": "_id",
          "type": "uint256"
        }
      ],
      "name": "checkResultById",
      "outputs": [
        {
          "internalType": "bool",
          "name": "",
          "type": "bool"
        }
      ],
      "stateMutability": "view",
      "type": "function",
      "constant": true
    }
  ],
  "bytecode": "0x60806040523480156200001157600080fd5b5060006003819055506040518060400160405280600b81526020017f445065746974696f6e65720000000000000000000000000000000000000000008152506000908051906020019062000067929190620000b7565b5033600160006101000a81548173ffffffffffffffffffffffffffffffffffffffff021916908373ffffffffffffffffffffffffffffffffffffffff1602179055506001600281905550620001cb565b828054620000c59062000196565b90600052602060002090601f016020900481019282620000e9576000855562000135565b82601f106200010457805160ff191683800117855562000135565b8280016001018555821562000135579182015b828111156200013457825182559160200191906001019062000117565b5b50905062000144919062000148565b5090565b5b808211156200016357600081600090555060010162000149565b5090565b7f4e487b7100000000000000000000000000000000000000000000000000000000600052602260045260246000fd5b60006002820490506001821680620001af57607f821691505b602082108103620001c557620001c462000167565b5b50919050565b611c6580620001db6000396000f3fe608060405234801561001057600080fd5b50600436106100ea5760003560e01c80638da5cb5b1161008c578063aaa413d611610066578063aaa413d614610264578063d1dbe7d814610294578063ee44183a146102cb578063fd2b5e9d146102fb576100ea565b80638da5cb5b146101f55780638f565f2814610213578063a3ec138d14610231576100ea565b80633617c3e1116100c85780633617c3e1146101595780633d6d089f1461017757806343859632146101a75780635f5300ff146101d7576100ea565b806306fdde03146100ef57806315373e3d1461010d5780632fdae3c514610129575b600080fd5b6100f7610319565b604051610104919061115a565b60405180910390f35b610127600480360381019061012291906111fe565b6103a7565b005b610143600480360381019061013e9190611373565b61064d565b60405161015091906113cb565b60405180910390f35b610161610834565b60405161016e91906113cb565b60405180910390f35b610191600480360381019061018c91906113e6565b61084a565b60405161019e9190611422565b60405180910390f35b6101c160048036038101906101bc919061149b565b61099c565b6040516101ce9190611422565b60405180910390f35b6101df610a68565b6040516101ec91906113cb565b60405180910390f35b6101fd610a6e565b60405161020a91906114ea565b60405180910390f35b61021b610a94565b60405161022891906113cb565b60405180910390f35b61024b60048036038101906102469190611505565b610aaa565b60405161025b94939291906115a9565b60405180910390f35b61027e600480360381019061027991906113e6565b610c17565b60405161028b9190611422565b60405180910390f35b6102ae60048036038101906102a991906113e6565b610c5d565b6040516102c29897969594939291906115fc565b60405180910390f35b6102e560048036038101906102e091906116a6565b610d67565b6040516102f29190611422565b60405180910390f35b610303611018565b60405161031091906113cb565b60405180910390f35b6000805461032690611774565b80601f016020809104026020016040519081016040528092919081815260200182805461035290611774565b801561039f5780601f106103745761010080835404028352916020019161039f565b820191906000526020600020905b81548152906001019060200180831161038257829003601f168201915b505050505081565b600254821080156103b85750600082115b6103f7576040517f08c379a00000000000000000000000000000000000000000000000000000000081526004016103ee906117f1565b60405180910390fd5b6006600083815260200190815260200160002060010160149054906101000a900460ff1661045a576040517f08c379a00000000000000000000000000000000000000000000000000000000081526004016104519061185d565b60405180910390fd5b610464823361099c565b156104a4576040517f08c379a000000000000000000000000000000000000000000000000000000000815260040161049b906118c9565b60405180910390fd5b600073ffffffffffffffffffffffffffffffffffffffff16600560003373ffffffffffffffffffffffffffffffffffffffff1673ffffffffffffffffffffffffffffffffffffffff16815260200190815260200160002060000160009054906101000a900473ffffffffffffffffffffffffffffffffffffffff1673ffffffffffffffffffffffffffffffffffffffff1603610575576040517f08c379a000000000000000000000000000000000000000000000000000000000815260040161056c90611935565b60405180910390fd5b60016006600084815260200190815260200160002060070160003373ffffffffffffffffffffffffffffffffffffffff1673ffffffffffffffffffffffffffffffffffffffff16815260200190815260200160002060006101000a81548160ff021916908315150217905550801561061a57600160066000848152602001908152602001600020600401600082825461060e9190611984565b92505081905550610649565b60016006600084815260200190815260200160002060050160008282546106419190611984565b925050819055505b5050565b60008073ffffffffffffffffffffffffffffffffffffffff16600560003373ffffffffffffffffffffffffffffffffffffffff1673ffffffffffffffffffffffffffffffffffffffff16815260200190815260200160002060000160009054906101000a900473ffffffffffffffffffffffffffffffffffffffff1673ffffffffffffffffffffffffffffffffffffffff160361071f576040517f08c379a000000000000000000000000000000000000000000000000000000000815260040161071690611935565b60405180910390fd5b600060066000600254815260200190815260200160002090506002548160000181905550338160010160006101000a81548173ffffffffffffffffffffffffffffffffffffffff021916908373ffffffffffffffffffffffffffffffffffffffff16021790555060018160010160146101000a81548160ff021916908315150217905550828160020190805190602001906107bb92919061101e565b50600081600401819055506000816005018190555060008160060160006101000a81548160ff02191690831515021790555060026000815480929190610800906119da565b919050555060046000815480929190610818906119da565b9190505550600160025461082c9190611a22565b915050919050565b600060016002546108459190611a22565b905090565b6000808211801561085c575060025482105b61086557600080fd5b6006600083815260200190815260200160002060010160149054906101000a900460ff1661089257600080fd5b6006600083815260200190815260200160002060050154600660008481526020019081526020016000206004015411156108fa5760016006600084815260200190815260200160002060060160006101000a81548160ff02191690831515021790555061092a565b60006006600084815260200190815260200160002060060160006101000a81548160ff0219169083151502179055505b60006006600084815260200190815260200160002060010160146101000a81548160ff0219169083151502179055506004600081548092919061096c90611a56565b91905055506006600083815260200190815260200160002060060160009054906101000a900460ff169050919050565b6000600254831080156109af5750600083115b6109ee576040517f08c379a00000000000000000000000000000000000000000000000000000000081526004016109e590611acb565b60405180910390fd5b6006600084815260200190815260200160002060070160008373ffffffffffffffffffffffffffffffffffffffff1673ffffffffffffffffffffffffffffffffffffffff16815260200190815260200160002060009054906101000a900460ff1615610a5d5760019050610a62565b600090505b92915050565b60035481565b600160009054906101000a900473ffffffffffffffffffffffffffffffffffffffff1681565b60006001600254610aa59190611a22565b905090565b60056020528060005260406000206000915090508060000160009054906101000a900473ffffffffffffffffffffffffffffffffffffffff1690806001018054610af390611774565b80601f0160208091040260200160405190810160405280929190818152602001828054610b1f90611774565b8015610b6c5780601f10610b4157610100808354040283529160200191610b6c565b820191906000526020600020905b815481529060010190602001808311610b4f57829003601f168201915b505050505090806002018054610b8190611774565b80601f0160208091040260200160405190810160405280929190818152602001828054610bad90611774565b8015610bfa5780601f10610bcf57610100808354040283529160200191610bfa565b820191906000526020600020905b815481529060010190602001808311610bdd57829003601f168201915b5050505050908060030160009054906101000a900460ff16905084565b60008082118015610c29575060025482105b610c3257600080fd5b6006600083815260200190815260200160002060060160009054906101000a900460ff169050919050565b60066020528060005260406000206000915090508060000154908060010160009054906101000a900473ffffffffffffffffffffffffffffffffffffffff16908060010160149054906101000a900460ff1690806002018054610cbf90611774565b80601f0160208091040260200160405190810160405280929190818152602001828054610ceb90611774565b8015610d385780601f10610d0d57610100808354040283529160200191610d38565b820191906000526020600020905b815481529060010190602001808311610d1b57829003601f168201915b5050505050908060030154908060040154908060050154908060060160009054906101000a900460ff16905088565b60008073ffffffffffffffffffffffffffffffffffffffff168573ffffffffffffffffffffffffffffffffffffffff1603610dd7576040517f08c379a0000000000000000000000000000000000000000000000000000000008152600401610dce90611b37565b60405180910390fd5b600280811115610dea57610de9611532565b5b826002811115610dfd57610dfc611532565b5b1115610e3e576040517f08c379a0000000000000000000000000000000000000000000000000000000008152600401610e3590611ba3565b60405180910390fd5b600073ffffffffffffffffffffffffffffffffffffffff16600560008773ffffffffffffffffffffffffffffffffffffffff1673ffffffffffffffffffffffffffffffffffffffff16815260200190815260200160002060000160009054906101000a900473ffffffffffffffffffffffffffffffffffffffff1673ffffffffffffffffffffffffffffffffffffffff1614610f0f576040517f08c379a0000000000000000000000000000000000000000000000000000000008152600401610f0690611c0f565b60405180910390fd5b6000600560008773ffffffffffffffffffffffffffffffffffffffff1673ffffffffffffffffffffffffffffffffffffffff1681526020019081526020016000209050858160000160006101000a81548173ffffffffffffffffffffffffffffffffffffffff021916908373ffffffffffffffffffffffffffffffffffffffff16021790555084816001019080519060200190610fad92919061101e565b5083816002019080519060200190610fc692919061101e565b50828160030160006101000a81548160ff02191690836002811115610fee57610fed611532565b5b021790555060036000815480929190611006906119da565b91905055506001915050949350505050565b60045481565b82805461102a90611774565b90600052602060002090601f01602090048101928261104c5760008555611093565b82601f1061106557805160ff1916838001178555611093565b82800160010185558215611093579182015b82811115611092578251825591602001919060010190611077565b5b5090506110a091906110a4565b5090565b5b808211156110bd5760008160009055506001016110a5565b5090565b600081519050919050565b600082825260208201905092915050565b60005b838110156110fb5780820151818401526020810190506110e0565b8381111561110a576000848401525b50505050565b6000601f19601f8301169050919050565b600061112c826110c1565b61113681856110cc565b93506111468185602086016110dd565b61114f81611110565b840191505092915050565b600060208201905081810360008301526111748184611121565b905092915050565b6000604051905090565b600080fd5b600080fd5b6000819050919050565b6111a381611190565b81146111ae57600080fd5b50565b6000813590506111c08161119a565b92915050565b60008115159050919050565b6111db816111c6565b81146111e657600080fd5b50565b6000813590506111f8816111d2565b92915050565b6000806040838503121561121557611214611186565b5b6000611223858286016111b1565b9250506020611234858286016111e9565b9150509250929050565b600080fd5b600080fd5b7f4e487b7100000000000000000000000000000000000000000000000000000000600052604160045260246000fd5b61128082611110565b810181811067ffffffffffffffff8211171561129f5761129e611248565b5b80604052505050565b60006112b261117c565b90506112be8282611277565b919050565b600067ffffffffffffffff8211156112de576112dd611248565b5b6112e782611110565b9050602081019050919050565b82818337600083830152505050565b6000611316611311846112c3565b6112a8565b90508281526020810184848401111561133257611331611243565b5b61133d8482856112f4565b509392505050565b600082601f83011261135a5761135961123e565b5b813561136a848260208601611303565b91505092915050565b60006020828403121561138957611388611186565b5b600082013567ffffffffffffffff8111156113a7576113a661118b565b5b6113b384828501611345565b91505092915050565b6113c581611190565b82525050565b60006020820190506113e060008301846113bc565b92915050565b6000602082840312156113fc576113fb611186565b5b600061140a848285016111b1565b91505092915050565b61141c816111c6565b82525050565b60006020820190506114376000830184611413565b92915050565b600073ffffffffffffffffffffffffffffffffffffffff82169050919050565b60006114688261143d565b9050919050565b6114788161145d565b811461148357600080fd5b50565b6000813590506114958161146f565b92915050565b600080604083850312156114b2576114b1611186565b5b60006114c0858286016111b1565b92505060206114d185828601611486565b9150509250929050565b6114e48161145d565b82525050565b60006020820190506114ff60008301846114db565b92915050565b60006020828403121561151b5761151a611186565b5b600061152984828501611486565b91505092915050565b7f4e487b7100000000000000000000000000000000000000000000000000000000600052602160045260246000fd5b6003811061157257611571611532565b5b50565b600081905061158382611561565b919050565b600061159382611575565b9050919050565b6115a381611588565b82525050565b60006080820190506115be60008301876114db565b81810360208301526115d08186611121565b905081810360408301526115e48185611121565b90506115f3606083018461159a565b95945050505050565b600061010082019050611612600083018b6113bc565b61161f602083018a6114db565b61162c6040830189611413565b818103606083015261163e8188611121565b905061164d60808301876113bc565b61165a60a08301866113bc565b61166760c08301856113bc565b61167460e0830184611413565b9998505050505050505050565b6003811061168e57600080fd5b50565b6000813590506116a081611681565b92915050565b600080600080608085870312156116c0576116bf611186565b5b60006116ce87828801611486565b945050602085013567ffffffffffffffff8111156116ef576116ee61118b565b5b6116fb87828801611345565b935050604085013567ffffffffffffffff81111561171c5761171b61118b565b5b61172887828801611345565b925050606061173987828801611691565b91505092959194509250565b7f4e487b7100000000000000000000000000000000000000000000000000000000600052602260045260246000fd5b6000600282049050600182168061178c57607f821691505b60208210810361179f5761179e611745565b5b50919050565b7f494420646f6573206e6f74206578697374000000000000000000000000000000600082015250565b60006117db6011836110cc565b91506117e6826117a5565b602082019050919050565b6000602082019050818103600083015261180a816117ce565b9050919050565b7f50726f706f73616c206e6f742061637469766500000000000000000000000000600082015250565b60006118476013836110cc565b915061185282611811565b602082019050919050565b600060208201905081810360008301526118768161183a565b9050919050565b7f43616e6e6f7420766f7465207477696365000000000000000000000000000000600082015250565b60006118b36011836110cc565b91506118be8261187d565b602082019050919050565b600060208201905081810360008301526118e2816118a6565b9050919050565b7f416464726573732063616e6e6f74206265207a65726f00000000000000000000600082015250565b600061191f6016836110cc565b915061192a826118e9565b602082019050919050565b6000602082019050818103600083015261194e81611912565b9050919050565b7f4e487b7100000000000000000000000000000000000000000000000000000000600052601160045260246000fd5b600061198f82611190565b915061199a83611190565b9250827fffffffffffffffffffffffffffffffffffffffffffffffffffffffffffffffff038211156119cf576119ce611955565b5b828201905092915050565b60006119e582611190565b91507fffffffffffffffffffffffffffffffffffffffffffffffffffffffffffffffff8203611a1757611a16611955565b5b600182019050919050565b6000611a2d82611190565b9150611a3883611190565b925082821015611a4b57611a4a611955565b5b828203905092915050565b6000611a6182611190565b915060008203611a7457611a73611955565b5b600182039050919050565b7f5468697320494420646f6573206e6f7420657869737400000000000000000000600082015250565b6000611ab56016836110cc565b9150611ac082611a7f565b602082019050919050565b60006020820190508181036000830152611ae481611aa8565b9050919050565b7f416464726573732063616e6e6f74206265203078300000000000000000000000600082015250565b6000611b216015836110cc565b9150611b2c82611aeb565b602082019050919050565b60006020820190508181036000830152611b5081611b14565b9050919050565b7f496e76616c69642067656e646572206f7074696f6e0000000000000000000000600082015250565b6000611b8d6015836110cc565b9150611b9882611b57565b602082019050919050565b60006020820190508181036000830152611bbc81611b80565b9050919050565b7f566f74657220616c726561647920657869737473000000000000000000000000600082015250565b6000611bf96014836110cc565b9150611c0482611bc3565b602082019050919050565b60006020820190508181036000830152611c2881611bec565b905091905056fea2646970667358221220a645e9049c951ea76155f216b00f326e3d1d58ab17fefaf3cb0160b12cc76e8064736f6c634300080e0033",
  "immutableReferences": {},
  "source": "// SPDX-License-Identifier: MIT\npragma solidity ^0.8.7;\n\ncontract DPetitioner{\n    string public name;\n    address public owner;\n    enum Gender {Male, Female, Other}\n    uint256 nextProposal;\n    uint256 public totalVoters;\n    uint256 public ongoingProposals;\n    //Stores info about accountholders\n    struct AccountInfo{\n        address account;\n        string firstName;\n        string lastName;\n        Gender gender;\n    }\n\n    mapping(address => AccountInfo) public voters;\n    \n    struct proposal{\n        uint256 id;\n        address creator;\n        bool exists;\n        string title;\n        uint deadline;\n        uint upvotes;\n        uint downvotes;\n        bool passed;\n        mapping(address => bool) voted;\n    }\n    mapping(uint256 => proposal) public Proposals;\n\n    constructor(){\n        totalVoters = 0;\n        name = \"DPetitioner\";\n        owner = msg.sender;\n        nextProposal = 1;\n    }\n    function getTotalNumberOfProposals() public view returns(uint256){\n        return(nextProposal -1);\n    }\n    function addVoter(address _newVoter, string memory _fname, string memory _lname, Gender _gender) public returns(bool){\n        // require(msg.sender == owner);\n        require(_newVoter != address(0), \"Address cannot be 0x0\");\n        require(_gender <= Gender.Other, \"Invalid gender option\");\n        require(voters[_newVoter].account == address(0), \"Voter already exists\");\n        AccountInfo storage acc = voters[_newVoter];\n        acc.account = _newVoter;\n        acc.firstName = _fname;\n        acc.lastName = _lname;\n        acc.gender = _gender;\n        totalVoters++;\n        return true;\n    }\n    function totalProposalsCreated() public view returns(uint256){\n        return( nextProposal-1);\n    }\n    function addProposal(string memory _title) public returns(uint256){\n        require(voters[msg.sender].account != address(0), \"Address cannot be zero\");\n        proposal storage newProposal = Proposals[nextProposal];\n        newProposal.id = nextProposal;\n        newProposal.creator = msg.sender;\n        newProposal.exists = true;\n        newProposal.title = _title;\n        newProposal.upvotes = 0;\n        newProposal.downvotes = 0;\n        newProposal.passed = false;\n        \n        nextProposal++;\n        ongoingProposals++;\n        return (nextProposal -1);\n    }\n    function hasVoted(uint256 _id, address sender) public view returns(bool){\n        require(_id < nextProposal && _id>0, \"This ID does not exist\");\n        if(Proposals[_id].voted[sender]){\n            return true;\n        }else{\n            return false;\n        }\n    }\n    function castVote(uint256 _id, bool upvote) public{\n        require(_id<nextProposal && _id>0, \"ID does not exist\");\n        require(Proposals[_id].exists, \"Proposal not active\");\n        require(!(hasVoted(_id, msg.sender)), \"Cannot vote twice\");\n        require(voters[msg.sender].account != address(0), \"Address cannot be zero\");\n        Proposals[_id].voted[msg.sender] = true;\n        if(upvote){\n            Proposals[_id].upvotes += 1;\n        }else{\n            Proposals[_id].downvotes += 1;\n        }\n    }\n    function calculatePetitionResult(uint256 _id) public returns(bool){\n        require(_id>0 && _id<nextProposal);\n        require(Proposals[_id].exists);\n        if(Proposals[_id].upvotes > Proposals[_id].downvotes){\n            Proposals[_id].passed = true;\n        }else{\n            Proposals[_id].passed = false;\n        }\n        Proposals[_id].exists = false;\n        ongoingProposals--;\n        return Proposals[_id].passed;\n    }\n    function checkResultById(uint _id) public view returns(bool){\n        require(_id>0 && _id<nextProposal);\n        return Proposals[_id].passed;\n    }\n    event ProposalCreated(\n        uint256 total\n    );\n    event ProposalCount(\n        uint256 id,\n        bool passed\n    );\n    event newVote(\n        uint256 upvotes,\n        uint256 downvotes,\n        address voter,\n        uint256 proposalId\n    );\n}",
  "sourcePath": "/home/ayush/programming/dapps/react-truffle/truffle/contracts/DPetitioner.sol",
  "compiler": {
    "name": "solc",
    "version": "0.8.14+commit.80d49f37.Emscripten.clang"
  },
  "schemaVersion": "3.4.9",
  "updatedAt": "2022-09-11T05:48:00.248Z",
  "networkType": "ethereum",
  "devdoc": {
    "kind": "dev",
    "methods": {},
    "version": 1
  },
  "userdoc": {
    "kind": "user",
    "methods": {},
    "version": 1
  }
}